:030000000200FFFC
:0C00FF00787FE4F6D8FD75810902014607
:03001E00010802D4
:10000300E4F5937594FFF5917592FFF5957596FF59
:0B001300F5B175B2FCF5B375B4FF2227
:1001BC00E4FDFCC3ED9FEE6480F8EC648098501570
:1001CC00E4FBFA0BBB00010ABA03F8BBE8F50DBD62
:0501DC0000010C80DEB3
:0101E10022FB
:10025400C2AF758920758DFDD28EC29FD29ED2AF5A
:010264002277
:0C01E2007F7E1201EE7F041201EE7F41CF
:0E01EE00C2ACC2998F993099FDC299D2AC2251
:100241001201FCFF600C1201EE740129F9E43AFA83
:0302510080EE221A
:0300230002026571
:0A026500C2ACC298859909D2AC32F0
:10021500AE05AD071201E2AF051201EEAF06120100
:06022500EE7FEF0201EE86
:10002600EF24CF70030200BA24FE70030200CD2431
:1000360033B4090040030200FE900046F8282873F6
:10004600020061020068020076020083020090024C
:10005600009E0200AC0200E00200EC1201E2E4FFA6
:1000660080227F7E1201EE7F021201EE1F0200F651
:100076007F7E1201EE7F021201EE0200F67F7E12F3
:1000860001EE7F021201EE0F80667F7E1201EE7F87
:10009600021201EE7F0480587F7E1201EE7F02126B
:1000A60001EE7F05804A7F7E1201EE7F021201EE8D
:1000B6007F06803C7F7E1201EE7F031201EE7F31C8
:1000C6001201EE7F1480297F7E1201EE7F0312015A
:1000D600EE7F331201EE7F0180161201E2E4FF1279
:1000E60001EE7F02800A1201E2E4FF1201EE7F03B5
:0900F6001201EE7FEF1201EE226F
:10022B007F331200267F31120026C2AC7F647E0022
:06023B001201BCD2AC224E
:10018B0012000312022BE508B4021230810F7FF428
:10019B007E011201BC308105C281750803E508B4EC
:1001AB0003E43081E17FF47E011201BC3081D78002
:0101BB00D56E
:10010B0002018BE493A3F8E493A34003F68001F27E
:10011B0008DFF48029E493A3F85407240CC8C333F5
:10012B00C4540F4420C8834004F456800146F6DFC4
:10013B00E4800B010204081020408090001EE47E36
:10014B00019360BCA3FF543F30E509541FFEE493B9
:10015B00A360010ECF54C025E060A840B8E493A380
:10016B00FAE493A3F8E493A3C8C582C8CAC583CAAB
:10017B00F0A3C8C582C8CAC583CADFE9DEE780BE63
:0100210000DE
:1001FC00BB010689828A83E0225002E722BBFE0201
:09020C00E32289828A83E4932233
:00000001FF
