:030000000201E812
:0C01E800787FE4F6D8FD75811502022F27
:10000300010D00041000000000010F0001080001B1
:0B0013000900010A00010B00010C00B5
:1002C400E4F5937594FFF5917592FFF5957596FF96
:0B02D400F5B175B2FCF5B375B4FF2264
:030274007F32FED8
:10027700E4FDFCC3ED9FEE6480F8EC6480985015B4
:10028700E4FBFA0BBB00010ABA03F8BBE8F50DBDA6
:0502970000010C80DEF7
:01029C00223F
:10035000C2AF758920758DFDD28EC29FD29ED2AF5D
:01036000227A
:070328007F7E12032F7F020C
:0E032F00C2ACC2998F993099FDC299D2AC220E
:10033D001202F9FF600C12032F740129F9E43AFA45
:03034D0080EE221D
:0300230002036174
:0A036100C2ACC29885990ED2AC32EE
:10029D008F148D157F3312014C7F7E12032F7F0437
:1002AD0012032F7F4112032FAF1412032FAF15121C
:0702BD00032F7FEF02032F66
:10014C00EF24CF606A24FE60792433B407004003A7
:10015C000201E7900166F828287302017B02018EE8
:10016C000201940201990201A60201AD0201B47FC1
:10017C007E12032F7F0412032F7F4112032FE4FF03
:10018C0080121203281F804B12032880467F7E1298
:10019C00032F7F0212032F0F80391203287F048054
:1001AC00321203287F05802B1203287F0680247FC0
:1001BC007E12032F7F0312032F7F3112032F7F1424
:1001CC0080117F7E12032F7F0312032F7F331203C4
:0C01DC002F7F0412032F7FEF12032F224D
:100312007F3312014C7F3112014CC2AC7FE87E0365
:06032200120277D2AC22AA
:100026001202C41202DF1203501203127FE87E038B
:100036001202777D06E4FF12029D20A217E50B70DF
:100046001312027420A20DE50B7009750B017D07D2
:10005600FF12029DE50D60030200F7E50870162009
:10006600C013120274E508700C20C0097508017DE2
:1000760001FF12029DE509701920A0167F32FE12BB
:100086000277E509700C20A0097509017D02FF12AF
:10009600029DE509B4011EE508B40119E50C7015C9
:1000A600E50A7011750C017F887E131202777D03B5
:1000B600E4FF12029DE50A701620A1137F32FE129C
:1000C6000277E50A700920A106750A01750C01E59B
:1000D60008B4011DE509B40118E50AB40113C2C349
:1000E6007F707E171202777D04E4FF12029D750D64
:1000F60001E50D6401600302004020C40375100190
:1001060020C5037511012081037512012082037534
:100116001301E51064016003020040E5116401600B
:1001260003020040E51264016003020040E5136427
:10013600016003020040750D02C2977D05FF1202A1
:060146009DC2A30200406F
:1002DF00D2C3D2C0D2A0D2A1D2C4D2C5D281D2822F
:0A02EF00D297D2A2D2A3E4F50B22AD
:1001F400020026E493A3F8E493A34003F68001F2FB
:1002040008DFF48029E493A3F85407240CC8C3330B
:10021400C4540F4420C8834004F456800146F6DFDA
:10022400E4800B0102040810204080900003E47E67
:10023400019360BCA3FF543F30E509541FFEE493CF
:10024400A360010ECF54C025E060A840B8E493A396
:10025400FAE493A3F8E493A3C8C582C8CAC583CAC1
:10026400F0A3C8C582C8CAC583CADFE9DEE780BE79
:01001E0000E1
:1002F900BB010689828A83E0225002E722BBFE0203
:09030900E32289828A83E4932235
:00000001FF
