:030000000201A852
:0C01A800787FE4F6D8FD75810802001E87
:10000300E4F5937594FFF5917592FFF5957596FF59
:0B001300F5B175B2FCF5B375B4FF2227
:1000FF00E4FDFCC3ED9FEE6480F8EC64809850152E
:10010F00E4FBFA0BBB00010ABA03F8BBE8F50DBD1F
:05011F0000010C80DE70
:0101240022B8
:10019700C2AF758920758DFDD28EC29FD29ED2AF18
:0101A7002235
:0C0125007F7E1201317F041201317F4106
:0E013100C2ACC2998F993099FDC299D2AC220E
:1001840012013FFF600C120131740129F9E43AFABB
:0301940080EE22D8
:030023000201B423
:0A01B400C2ACC298859908D2AC32A3
:10015800AE05AD07120125AF05120131AF06120138
:06016800317FEF020131BE
:10002600EF24CF70030200BA24FE70030200CD2431
:1000360033B4090040030200FE900046F8282873F6
:10004600020061020068020076020083020090024C
:10005600009E0200AC0200E00200EC120125E4FF63
:1000660080227F7E1201317F021201311F0200F6CB
:100076007F7E1201317F021201310200F67F7E126D
:1000860001317F021201310F80667F7E1201317FBE
:10009600021201317F0480587F7E1201317F0212E5
:1000A60001317F05804A7F7E1201317F02120131C4
:1000B6007F06803C7F7E1201317F031201317F3142
:1000C6001201317F1480297F7E1201317F031201D4
:1000D600317F331201317F018016120125E4FF12B0
:1000E60001317F02800A120125E4FF1201317F03EC
:0900F6001201317FEF12013122E9
:10016E007F331200267F31120026C2AC7F647E00E0
:06017E001200FFD2AC22CA
:01001E0022BF
:10013F00BB010689828A83E0225002E722BBFE02BE
:09014F00E32289828A83E49322F1
:00000001FF
