:030000000201D228
:0C01D200787FE4F6D8FD7581080200FF7C
:10000300E4F5937594FFF5917592FFF5957596FF59
:0B001300F5B175B2FCF5B375B4FF2227
:10012900E4FDFCC3ED9FEE6480F8EC648098501503
:10013900E4FBFA0BBB00010ABA03F8BBE8F50DBDF5
:0501490000010C80DE46
:01014E00228E
:1001C100C2AF758920758DFDD28EC29FD29ED2AFEE
:0101D100220B
:0C014F007F7E12015B7F0412015B7F4188
:0E015B00C2ACC2998F993099FDC299D2AC22E4
:1001AE00120169FF600C12015B740129F9E43AFA3D
:0301BE0080EE22AE
:030023000201DEF9
:0A01DE00C2ACC298859908D2AC3279
:10018200AE05AD0712014FAF0512015BAF061201BA
:060192005B7FEF02015B40
:10002600EF24CF70030200BA24FE70030200CD2431
:1000360033B4090040030200FE900046F8282873F6
:10004600020061020068020076020083020090024C
:10005600009E0200AC0200E00200EC12014FE4FF39
:1000660080227F7E12015B7F0212015B1F0200F677
:100076007F7E12015B7F0212015B0200F67F7E1219
:10008600015B7F0212015B0F80667F7E12015B7F40
:100096000212015B7F0480587F7E12015B7F021291
:1000A600015B7F05804A7F7E12015B7F0212015B46
:1000B6007F06803C7F7E12015B7F0312015B7F31EE
:1000C60012015B7F1480297F7E12015B7F03120180
:1000D6005B7F3312015B7F01801612014FE4FF1232
:1000E600015B7F02800A12014FE4FF12015B7F036E
:0900F60012015B7FEF12015B2295
:100198007F331200267F31120026C2AC7FE87E032F
:0601A800120129D2AC2275
:1000FF00120003C285D290C291C292C293C296C21D
:10010F0094C2C4C295C297D2C2D2873085FD7F32C6
:0A011F007E001201293085F380F103
:10016900BB010689828A83E0225002E722BBFE0294
:09017900E32289828A83E49322C7
:00000001FF
