:030000000200FFFC
:0C00FF00787FE4F6D8FD75810902014607
:03001E00010800D6
:10000300E4F5937594FFF5917592FFF5957596FF59
:0B001300F5B175B2FFF5B375B4FF2224
:040216007FF47E01F2
:10021A00E4FDFCC3ED9FEE6480F8EC648098501511
:10022A00E4FBFA0BBB00010ABA03F8BBE8F50DBD03
:05023A0000010C80DE54
:01023F00229C
:1002B600C2AF758920758DFDD28EC29FD29ED2AFF8
:0102C6002215
:0C0240007F7E12024C7F0412024C7F41B2
:0E024C00C2ACC2998F993099FDC299D2AC22F2
:1002A300120274FF600C12024C740129F9E43AFA49
:0302B30080EE22B8
:030023000202C70F
:0A02C700C2ACC298859909D2AC328E
:04025A007D02E4FF3E
:10025E00AE05AD07120240AF0512024CAF061202F8
:06026E004C7FEF02024C80
:10002600EF24CF70030200BA24FE70030200CD2431
:1000360033B4090040030200FE900046F8282873F6
:10004600020061020068020076020083020090024C
:10005600009E0200AC0200E00200EC120240E4FF47
:1000660080227F7E12024C7F0212024C1F0200F693
:100076007F7E12024C7F0212024C0200F67F7E1235
:10008600024C7F0212024C0F80667F7E12024C7F6A
:100096000212024C7F0480587F7E12024C7F0212AD
:1000A600024C7F05804A7F7E12024C7F0212024C70
:1000B6007F06803C7F7E12024C7F0312024C7F310A
:1000C60012024C7F1480297F7E12024C7F0312029B
:1000D6004C7F3312024C7F018016120240E4FF125D
:1000E600024C7F02800A120240E4FF12024C7F0398
:0900F60012024C7FEF12024C22B1
:10028D007F331200267F31120026C2AC7FE87E0339
:06029D0012021AD2AC228D
:10018B00120003C2B2C2B3C2B4C2B5C2B6C2B71276
:10019B0002B612028DD281C282E5087018FF1200DE
:1001AB002630C4117508987F887E1312021A7D01C0
:1001BB00E4FF12025EE508B4021030840D750805E9
:1001CB007F887E1312021A12025AE508B4050C300E
:1001DB00C009120216309403750806E508B406111F
:1001EB0030C00E12021630C00875080712025AC230
:1001FB00C2E5086407709E30939B120216309395EC
:0B020B0075080812025AC2920201A0FE
:0100220022BB
:10010B0002018BE493A3F8E493A34003F68001F27E
:10011B0008DFF48029E493A3F85407240CC8C333F5
:10012B00C4540F4420C8834004F456800146F6DFC4
:10013B00E4800B010204081020408090001EE47E36
:10014B00019360BCA3FF543F30E509541FFEE493B9
:10015B00A360010ECF54C025E060A840B8E493A380
:10016B00FAE493A3F8E493A3C8C582C8CAC583CAAB
:10017B00F0A3C8C582C8CAC583CADFE9DEE780BE63
:0100210000DE
:10027400BB010689828A83E0225002E722BBFE0288
:09028400E32289828A83E49322BB
:00000001FF
