:03000000020026D5
:0C002600787FE4F6D8FD75810902006DBA
:03000300010800F1
:10012A00C2AF758920758DFDD28EC29FD29ED2AF85
:01013A0022A2
:0E013B00C2ACC2998F993099FDC299D2AC2204
:10000E00120111FF600C12013B740129F9E43AFA56
:03001E0080EE224F
:0300230002015780
:0A015700C2ACC298859909D2AC32FF
:0E014900758901D2AFD2A9758CB8E4F58A226F
:03000B000200B23E
:1000B200C0E0C0F0C083C082C0D075D000C000C014
:1000C20001C002C003C004C005C006C007758CB8D9
:1000D200758A00E508700830801A7508018015E5F8
:1000E20008B4010830810D7508028008E508B402E1
:1000F20003120007D007D006D005D004D003D002E7
:0F010200D001D000D0D0D082D083D0F0D0E03266
:0100070022D6
:10003200020149E493A3F8E493A34003F68001F29A
:1000420008DFF48029E493A3F85407240CC8C333CF
:10005200C4540F4420C8834004F456800146F6DF9E
:10006200E4800B0102040810204080900003E47E2B
:10007200019360BCA3FF543F30E509541FFEE49393
:10008200A360010ECF54C025E060A840B8E493A35A
:10009200FAE493A3F8E493A3C8C582C8CAC583CA85
:1000A200F0A3C8C582C8CAC583CADFE9DEE780BE3D
:0100060000F9
:10011100BB010689828A83E0225002E722BBFE02EC
:09012100E32289828A83E493221F
:00000001FF
