:030000000200FFFC
:0C00FF00787FE4F6D8FD75810902014607
:03001E00010800D6
:10000300E4F5937594FFF5917592FFF5957596FF59
:0B001300F5B175B2FCF5B375B4FF2227
:1001E200E4FDFCC3ED9FEE6480F8EC64809850154A
:1001F200E4FBFA0BBB00010ABA03F8BBE8F50DBD3C
:0502020000010C80DE8C
:0102070022D4
:10027A00C2AF758920758DFDD28EC29FD29ED2AF34
:01028A002251
:0C0208007F7E1202147F041202147F415A
:0E021400C2ACC2998F993099FDC299D2AC222A
:10026700120222FF600C120214740129F9E43AFA0F
:0302770080EE22F4
:0300230002028B4B
:0A028B00C2ACC298859909D2AC32CA
:10023B00AE05AD07120208AF05120214AF0612028B
:06024B00147FEF02021413
:10002600EF24CF70030200BA24FE70030200CD2431
:1000360033B4090040030200FE900046F8282873F6
:10004600020061020068020076020083020090024C
:10005600009E0200AC0200E00200EC120208E4FF7F
:1000660080227F7E1202147F021202141F0200F603
:100076007F7E1202147F021202140200F67F7E12A5
:1000860002147F021202140F80667F7E1202147F12
:10009600021202147F0480587F7E1202147F02121D
:1000A60002147F05804A7F7E1202147F0212021418
:1000B6007F06803C7F7E1202147F031202147F317A
:1000C6001202147F1480297F7E1202147F0312020B
:1000D600147F331202147F018016120208E4FF1205
:1000E60002147F02800A120208E4FF1202147F0340
:0900F6001202147FEF1202142221
:100251007F331200267F31120026C2AC7F647E00FC
:060261001201E2D2AC2202
:10018B00120003120251E508701430851175080234
:10019B007F887E131201E27D01E4FF12023BE5082A
:1001AB00B402143084117508057F887E131201E2A6
:1001BB007D02E4FF12023BE508B405CA30C0C77FDD
:1001CB00F47E011201E230C0BD7508067D02E4FF2A
:0701DB0012023BC2C280AF1B
:0100220022BB
:10010B0002018BE493A3F8E493A34003F68001F27E
:10011B0008DFF48029E493A3F85407240CC8C333F5
:10012B00C4540F4420C8834004F456800146F6DFC4
:10013B00E4800B010204081020408090001EE47E36
:10014B00019360BCA3FF543F30E509541FFEE493B9
:10015B00A360010ECF54C025E060A840B8E493A380
:10016B00FAE493A3F8E493A3C8C582C8CAC583CAAB
:10017B00F0A3C8C582C8CAC583CADFE9DEE780BE63
:0100210000DE
:10022200BB010689828A83E0225002E722BBFE02DA
:09023200E32289828A83E493220D
:00000001FF
