:10069600010301040502010602050304040602051E
:0806A600020305020304050331
:1005CD000120000123000124000125000126000166
:1005DD002700012800012200022900001808000050
:1005ED0000000000000000000000000000000000FE
:0605FD00000000000000F8
:10000300E4F5937594FFF5917592FFF5957596FF59
:0B001300F5B175B2FCF5B375B4FF2227
:04062F007F327E0098
:10063300E4FDFCC3ED9FEE6480F8EC6480985015F4
:10064300E4FBFA0BBB00010ABA03F8BBE8F50DBDE6
:0506530000010C80DE37
:01065800227F
:1006D700C2AF758920758DFDD28EC29FD29ED2AFD3
:0106E70022F0
:0C067C007F7E1206887F041206887F41F2
:0E068800C2ACC2998F993099FDC299D2AC22B2
:1006C400120588FF600C120688740129F9E43AFACD
:0306D40080EE2293
:030023000206E8EA
:0A06E800C2ACC298859921D2AC3251
:040659007C00E4FF3E
:10065D008E2E8F2F8C308D317F3312042312067C1A
:0F066D00AF2F120688AF311206887FEF02068882
:10042300EF24CF70030204B724FE70030204CA242E
:1004330033B4090040030204FB900443F8282873F3
:1004430002045E02046502047302048002048D0246
:10045300049B0204A90204DD0204E912067CE4FF02
:1004630080227F7E1206887F021206881F0204F311
:100473007F7E1206887F021206880204F37F7E12B3
:1004830006887F021206880F80667F7E1206887FA9
:10049300021206887F0480587F7E1206887F02122C
:1004A30006887F05804A7F7E1206887F02120688AF
:1004B3007F06803C7F7E1206887F031206887F3189
:1004C3001206887F1480297F7E1206887F03120616
:1004D300887F331206887F04801612067CE4FF129D
:1004E30006887F02800A12067CE4FF1206887F03D7
:0904F3001206887FEF1206882230
:1006AE007F331204237F31120423C2AC7FE87E0312
:0606BE00120633D2AC224B
:100026001200031206041206D71206AE7FE87E03FC
:100036001206337D0102015820971012062F2097D1
:100046000A1206337F02120423D297E5207023207A
:1000560086E62095E37F32FE1206332086DA209567
:10006600D7D2927F641206337D021206597520019B
:1000760080C6E520640160030201637F32FE12063A
:1000860033208512E523700E12063320850875236A
:10009600017D04120659208415E52470117F32FE75
:1000A6001206332084087524017D05120659208323
:1000B60015E52570117F32FE12063320830875255B
:1000C600017D03120659208215E52670117F32FE46
:1000D6001206332082087526017D071206592081F3
:1000E60015E52770117F32FE120633208108752729
:1000F600017D06120659208015E52870117F32FE13
:100106001206332080087528017D08120659E5235A
:100116006401600302003EE5246401600302003EC0
:10012600E5256401600302003EE5266401600302E2
:10013600003EE5276401600302003EE52864016095
:100146000302003E752002D2C27F887E1312063358
:100156007D097C00E4FFFE12065D02003EE520B448
:100166000225E4F5227F32FE1206337F0612023D97
:10017600EF64014E600302003E7D0AFCFFFE12069C
:100186005D75200302003EE520B4031F7522017F42
:100196000612023DEF64014E600302003E7D0BFC39
:1001A600FFFE12065D75200402003EE520B4041F22
:1001B6007522027F0612023DEF64014E60030200C3
:1001C6003E7D0CFCFFFE12065D75200502003EE535
:1001D600206405702C7522037F0612023DEF640130
:1001E6004E600302003EC2C2D2907F887E13120682
:1001F600337D117C00E4FFFE12065D7520060200C9
:100206003EE5206406600302003E30A30302003E82
:100216007F32FE12063330A30302003E752007D25A
:10022600917FD07E07120633C2967D127C00E4FFD2
:07023600FE12065D02003E0E
:02023D008F2B05
:10023F0020942412062F30940302031A3094FDE504
:10024F002275F006A42408252AF87606052AE52A41
:10025F007029052902031A20932412062F309303C5
:10026F0002031A3093FDE52275F006A42408252A0F
:10027F00F87605052AE52A7002052902031A208758
:10028F002312062F30870302031A3087FDE52275EC
:10029F00F006A42408252AF87604052AE52A700218
:1002AF000529806720A42012062F20A45E30A4FD0C
:1002BF00E52275F006A42408252AF87601052AE51B
:1002CF002A70480529804420A52012062F20A53B1F
:1002DF0030A5FDE52275F006A42408252AF876023C
:1002EF00052AE52A70250529802120A61E12062F32
:1002FF0020A61830A6FDE52275F006A42408252AAD
:10030F00F87603052AE52A70020529AF2BEF3395FE
:10031F00E0FEEF652A7003EE6529600302041FF506
:10032F002CF52DAF2BEF3395E0FEC3E52D9FEE643B
:10033F0080F8E52C6480984003020416E52275F0DE
:10034F0006A42408252DF8E6FFE52275F006A4245F
:10035F0096F582E43406F583E582252DF582E58353
:10036F00352CF583E4936F700302040BE4F529F544
:10037F002AE522701CF583758206FDE52275F006CD
:10038F00A42408F9E4FAFBFE7F061205A17D0D8077
:10039F0061E5226401701CF583758206FDE5227507
:1003AF00F006A42408F9E4FAFBFE7F061205A17DEE
:1003BF000E803FE5226402701CF583758206FDE511
:1003CF002275F006A42408F9E4FAFBFE7F06120555
:1003DF00A17D0F801DE522B403209000067D0075DE
:1003EF00F006A42408F9E4FAFBAE83AF821205A14C
:1003FF007D107C00E4FFFE12065D8014052DE52DB7
:10040F007002052C020332E4F529F52AFE7F012242
:03041F00E4FEFFF9
:0104220022B7
:10060400D286D295C290C291C292C2C2D285D284FD
:10061400D283D282D281D280D294D293D287D2A6EC
:0B062400D2A4D2A5D2A3D296D2972276
:030000000204FCFB
:0C04FC00787FE4F6D8FD758131020543DD
:10058800BB010689828A83E0225002E722BBFE0271
:09059800E32289828A83E49322A4
:1005A100EF4E6012EF60010EEDBB010B89828A8371
:1005B100F0A3DFFCDEFA2289F05007F709DFFCA97E
:0C05C100F022BBFEFCF309DFFCA9F022D5
:10050800020026E493A3F8E493A34003F68001F2E3
:1005180008DFF48029E493A3F85407240CC8C333F4
:10052800C4540F4420C8834004F456800146F6DFC3
:10053800E4800B01020408102040809005CDE47E81
:10054800019360BCA3FF543F30E509541FFEE493B8
:10055800A360010ECF54C025E060A840B8E493A37F
:10056800FAE493A3F8E493A3C8C582C8CAC583CAAA
:10057800F0A3C8C582C8CAC583CADFE9DEE780BE62
:0106030000F6
:00000001FF
