:030000000200FFFC
:0C00FF00787FE4F6D8FD75810902014607
:03001F00010800D5
:1001B100E4F5937594FFF5917592FFF5957596FFAA
:0B01C100F5B175B2FFF5B375B4FF2275
:10018B00E4FDFCC3ED9FEE6480F8EC6480985015A1
:10019B00E4FBFA0BBB00010ABA03F8BBE8F50DBD93
:0501AB0000010C80DEE4
:0101B000222C
:10023E00C2AF758920758DFDD28EC29FD29ED2AF70
:01024E00228D
:0C01CC007F7E1201D87F041201D87F4111
:0E01D800C2ACC2998F993099FDC299D2AC2267
:10022B001201E6FF600C1201D8740129F9E43AFAC5
:03023B0080EE2230
:0300230002024F87
:0A024F00C2ACC298859909D2AC3206
:1001FF00AE05AD071201CCAF051201D8AF06120143
:06020F00D87FEF0201D8C8
:10002600EF24CF70030200BA24FE70030200CD2431
:1000360033B4090040030200FE900046F8282873F6
:10004600020061020068020076020083020090024C
:10005600009E0200AC0200E00200EC1201CCE4FFBC
:1000660080227F7E1201D87F021201D81F0200F67D
:100076007F7E1201D87F021201D80200F67F7E121F
:1000860001D87F021201D80F80667F7E1201D87FC9
:10009600021201D87F0480587F7E1201D87F021297
:1000A60001D87F05804A7F7E1201D87F021201D8CF
:1000B6007F06803C7F7E1201D87F031201D87F31F4
:1000C6001201D87F1480297F7E1201D87F03120186
:1000D600D87F331201D87F0180161201CCE4FF12BB
:1000E60001D87F02800A1201CCE4FF1201D87F03F7
:0900F6001201D87FEF1201D8229B
:100215007F331200267F31120026C2AC7FE87E03B1
:0602250012018BD2AC2295
:100003001201B1C2B2C2B3C2B4C2B5C2B6C2B71250
:0C001300023E1202157D01E4FF0201FF15
:010259002282
:10010B00020003E493A3F8E493A34003F68001F207
:10011B0008DFF48029E493A3F85407240CC8C333F5
:10012B00C4540F4420C8834004F456800146F6DFC4
:10013B00E4800B010204081020408090001FE47E35
:10014B00019360BCA3FF543F30E509541FFEE493B9
:10015B00A360010ECF54C025E060A840B8E493A380
:10016B00FAE493A3F8E493A3C8C582C8CAC583CAAB
:10017B00F0A3C8C582C8CAC583CADFE9DEE780BE63
:0100220000DD
:1001E600BB010689828A83E0225002E722BBFE0217
:0901F600E32289828A83E493224A
:00000001FF
