:0300000002023BBE
:0C023B00787FE4F6D8FD75811502028280
:1003EC0001100008080001020304050607011207AA
:0903FC00011307011407011507A4
:10000300E4F5937594FFF5917592FFF5957596FF59
:0B001300F5B175B2FCF5B375B4FF2227
:040381007F327E0049
:10038500E4FDFCC3ED9FEE6480F8EC6480985015A5
:10039500E4FBFA0BBB00010ABA03F8BBE8F50DBD97
:0503A50000010C80DEE8
:0103AA002230
:10044500C2AF758920758DFDD28EC29FD29ED2AF67
:010455002284
:0C03D2007F7E1203DE7F041203DE7F41F9
:0E03DE00C2ACC2998F993099FDC299D2AC225F
:10043200120368FF600C1203DE740129F9E43AFA30
:0304420080EE2227
:030023000204567E
:0A045600C2ACC298859911D2AC32F5
:10040600AE05AD071203D2AF051203DEAF06120327
:06041600DE7FEF0203DEB1
:10016200EF24CF70030201F624FE70030202092479
:1001720033B40900400302023A900182F82828733E
:1001820002019D0201A40201B20201BF0201CC02DE
:1001920001DA0201E802021C0202281203D2E4FF81
:1001A20080227F7E1203DE7F021203DE1F020232F2
:1001B2007F7E1203DE7F021203DE0202327F7E1294
:1001C20003DE7F021203DE0F80667F7E1203DE7F74
:1001D200021203DE7F0480587F7E1203DE7F02124A
:1001E20003DE7F05804A7F7E1203DE7F021203DE7A
:1001F2007F06803C7F7E1203DE7F031203DE7F31A7
:100202001203DE7F1480297F7E1203DE7F03120336
:10021200DE7F331203DE7F0180161203D2E4FF1267
:1002220003DE7F02800A1203D2E4FF1203DE7F03A1
:090232001203DE7FEF1203DE224D
:10041C007F331201627F31120162C2AC7F647E00B5
:06042C00120385D2AC2290
:100026001200031203AB12044512041CE510600310
:1000360002013F20862F7F32FE1203852086260589
:1000460012AF12EF75F00812034685F0120513AFD2
:1000560013EF75F00812034685F013AD12E4FF1294
:1000660002CB1202C720874112038120873B05126B
:10007600AF12EF75F00812034685F0120513AF13A1
:10008600EF75F00812034685F0130514AF14EF75EB
:10009600F00812034685F014AD12E4FF1202CB12EB
:1000A60002C7AD147F021202CB20C6411203812083
:1000B600C63B0513AF13EF75F00812034685F01320
:1000C6000514AF14EF75F00812034685F0140515F4
:1000D600AF15EF75F00812034685F0151202C7AD8D
:1000E600147F021202CBAD157F031202CB20C13062
:1000F60012038120C12A0514AF14EF75F00812030C
:100106004685F0140515AF15EF75F0081203468500
:10011600F015AD147F021202CBAD157F031202CB90
:10012600E512B40414E513B4040FE514B4040AE5A7
:1001360015B40405751002C2C3E51064026003021B
:1001460000323085030200327F32FE12038530858D
:0C01560003020032751003C29702003251
:0402C700AD137F01F3
:1002CB00EF14602614603C1460552403706CED54DD
:1002DB0004A2E713A2E71324FF9280ED5402A2E7D6
:1002EB001324FF9281ED13928222ED5404A2E713A3
:1002FB00A2E71324FF9283ED5402A2E71324FF928B
:10030B00848017ED5404A2E713A2E71324FF92A7EE
:10031B00ED5402A2E71324FF92A6ED1392A522ED52
:10032B005404A2E713A2E71324FF92C0ED5402A2D8
:0B033B00E71324FF92A0ED1392A12213
:1003AB00D286D287D2C6D2C1D285D2C3D297D280BF
:1003BB00D281D282D283D284D2A5D2A7D2A6D2A501
:0703CB00D2C0D2A0D2A12292
:10024700020026E493A3F8E493A34003F68001F2A7
:1002570008DFF48029E493A3F85407240CC8C333B8
:10026700C4540F4420C8834004F456800146F6DF87
:10027700E4800B01020408102040809003ECE47E28
:10028700019360BCA3FF543F30E509541FFEE4937C
:10029700A360010ECF54C025E060A840B8E493A343
:1002A700FAE493A3F8E493A3C8C582C8CAC583CA6E
:1002B700F0A3C8C582C8CAC583CADFE9DEE780BE26
:0104050000F6
:10034600C2D530F707B2D563F0FF05F030E70CB23F
:10035600D5F4048463F0FF05F080018430D502F4FF
:0203660004226F
:10036800BB010689828A83E0225002E722BBFE0293
:09037800E32289828A83E49322C6
:00000001FF
