:030000000203F9FF
:0C03F900787FE4F6D8FD75811D020440F9
:10000300011000080800010203040506070212009C
:0D0013000402140004021600040218000488
:1005A400E4F5937594FFF5917592FFF5957596FFB3
:0B05B400F5B175B2FCF5B375B4FF2281
:040553007F327E0075
:10055700E4FDFCC3ED9FEE6480F8EC6480985015D1
:10056700E4FBFA0BBB00010ABA03F8BBE8F50DBDC3
:0505770000010C80DE14
:01057C00225C
:10061800C2AF758920758DFDD28EC29FD29ED2AF92
:0106280022AF
:0C05BF007F7E1205CB7F041205CB7F412C
:0E05CB00C2ACC2998F993099FDC299D2AC2270
:10060500120355FF600C1205CB740129F9E43AFA7F
:0306150080EE2252
:03002300020629A9
:0A062900C2ACC298859911D2AC3220
:1005D900AE05AD071205BFAF051205CBAF06120573
:0605E900CB7FEF0205CB01
:10027C00EF24CF700302031024FE70030203232427
:10028C0033B40900400302035490029CF8282873ED
:10029C000202B70202BE0202CC0202D90202E6023C
:1002AC0002F40203020203360203421205BFE4FF0A
:1002BC0080227F7E1205CB7F021205CB1F02034CDE
:1002CC007F7E1205CB7F021205CB02034C7F7E1280
:1002DC0005CB7F021205CB0F80667F7E1205CB7F8C
:1002EC00021205CB7F0480587F7E1205CB7F021251
:1002FC0005CB7F05804A7F7E1205CB7F021205CB92
:10030C007F06803C7F7E1205CB7F031205CB7F31AD
:10031C001205CB7F1480297F7E1205CB7F0312053B
:10032C00CB7F331205CB7F0180161205BFE4FF1281
:10033C0005CB7F02800A1205BFE4FF1205CB7F03B9
:09034C001205CB7FEF1205CB2254
:1005EF007F3312027C7F3112027CC2AC7FE87E0324
:0605FF00120557D2AC22E8
:100026001205A412057D1206181205EFE5136404E5
:1000360045127052E51564044514704AE5176404C8
:1000460045167042E51964044518703A1205067C97
:10005600007D0812036E8C128D131205067C007D3E
:100066000812036E8C148D151205067C007D08128D
:10007600036E8C168D171205067C007D0812036E22
:100086008C188D1980A674082513F8E6FDE4FF1276
:100096000488740825157F01120485740825177FC6
:1000A6000212048574082519F8E6FD7F03120488F8
:1000B600E51060030202522084487F32FE12055783
:1000C60030840302021B0513E513700205120515A1
:1000D600E51570020514AE12AF137C007D081203FD
:1000E6006E8C128D13AE14AF157C007D0812036E54
:1000F6008C148D15AD13E4FF120488AD157F010233
:10010600021520836312055330830302021B051375
:10011600E513700205120515E5157002051405179D
:10012600E51770020516AE12AF137C007D081203A8
:100136006E8C128D13AE14AF157C007D0812036E03
:100146008C148D15AE16AF177C007D0812036E8CCD
:10015600168D17AD13E4FF120488AD157F01120446
:1001660088AD177F0202021520A36212055330A341
:100176000302021B0515E515700205140517E517A0
:10018600700205160519E51970020518AE14AF15AB
:100196007C007D0812036E8C148D15AE16AF177C8D
:1001A600007D0812036E8C168D17AE18AF197C00F1
:1001B6007D0812036E8C188D19AD157F0112048807
:1001C600AD177F02120488AD197F03804220814556
:1001D60012055320813F0517E5177002051605190C
:1001E600E51970020518AE16AF177C007D081203DC
:1001F6006E8C168D17AE18AF197C007D0812036E33
:100206008C188D19AD177F02120488AD197F031261
:1002160004881205533084FD3083FD30A3FD308100
:10022600FDE513640445127023E515640445147056
:100236001BE517640445167013E519640445187028
:100246000B751001C2A17D01FF1205D9E5106401ED
:1002560060030200B63080030200B67F32FE12054C
:10026600573080030200B6751002C2A27D02E4FF79
:060276001205D90200B6DA
:03048500F8E6FD99
:10048800EF14602614603F1460582403706FED5415
:1004980004A2E713A2E71324FF92C2ED5402A2E7D5
:1004A8001324FF9290ED13929122ED5404A2E713C6
:1004B800A2E71324FF9292ED5402A2E71324FF92BD
:1004C80093ED13929422ED5404A2E713A2E71324A8
:1004D800FF9295ED5402A2E71324FF9296ED139232
:1004E8009722ED5404A2E713A2E71324FF92C3ED69
:0E04F8005402A2E71324FF92C0ED1392A0223B
:10057D00D284D283D2A3D281D280D2A1D297C2C348
:10058D00C297C296C295C294C293C292C291C290B2
:07059D00C2C2C2C0C2A022CD
:10040500020026E493A3F8E493A34003F68001F2E7
:1004150008DFF48029E493A3F85407240CC8C333F8
:10042500C4540F4420C8834004F456800146F6DFC7
:10043500E4800B0102040810204080900003E47E54
:10044500019360BCA3FF543F30E509541FFEE493BC
:10045500A360010ECF54C025E060A840B8E493A383
:10046500FAE493A3F8E493A3C8C582C8CAC583CAAE
:10047500F0A3C8C582C8CAC583CADFE9DEE780BE66
:0100200000DF
:10035500BB010689828A83E0225002E722BBFE02A6
:09036500E32289828A83E49322D9
:10036E00C2D5EC30E709B2D5E4C39DFDE49CFCEEAA
:10037E0030E715B2D5E4C39FFFE49EFE1203A4C37B
:10038E00E49DFDE49CFC80031203A430D507C3E476
:06039E009FFFE49EFE2219
:10050600AC1AAD1BAE1CAF1D7810EC4D4E4F7004EF
:100516007CA57DA5C3EC13FCED13FDEE13FEEF13D6
:10052600FF5010EC64CCFCED644CFDEE644EFEEF27
:1005360064CEFFD8DF8C1A8D1B8E1C8F1DEE547F68
:0D054600FE228E1A8F1B74A5F51CF51D22D8
:1003A400BC000BBE0029EF8DF084FFADF022E4CC3D
:1003B400F875F008EF2FFFEE33FEEC33FCEE9DEC06
:1003C400984005FCEE9DFE0FD5F0E9E4CEFD22ED4C
:1003D400F8F5F0EE8420D21CFEADF075F008EF2F96
:1003E400FFED33FD4007985006D5F0F222C398FD87
:0503F4000FD5F0EA2224
:00000001FF
